:100000000C9472000C9493000C9493000C94930045
:100010000C9493000C9469010C9486010C94930049
:100020000C9493000C9493000C9493000C94930004
:100030000C9493000C9493000C9493000C949300F4
:100040000C9493000C9493000C9493000C949300E4
:100050000C9493000C9493000C9493000C949300D4
:100060000C9493000C9493000C9493000C949300C4
:100070000C9493000C9493000C9493000C949300B4
:100080000C9493000C9493000C9493000C949300A4
:100090000C9493000C9493000C9493000C94930094
:1000A0000C9493000C9493000C9493000C94930084
:1000B0000C9493000C9493000C9493000C94930074
:1000C0000C9493000C9493000C9493000C94930064
:1000D0000C9493000C9493000C9493000C94930054
:1000E0000C94930011241FBECFEFD1E2DEBFCDBF31
:1000F00000E00CBF14E0A0E0B2E0E0EEF8E500E0C4
:100100000BBF02C007900D92AC30B107D9F714E0D5
:10011000ACE0B4E001C01D92A13AB107E1F70E9442
:100120007A030C946E2C0C940000DF93CF93CDB720
:10013000DEB7E1E2F1E01082E0E2F1E089EA8083FB
:10014000E1E2F1E08BE08083EDE2F0E088E18083A2
:10015000EEE2F0E01082CF91DF910895DF93CF932C
:10016000CDB7DEB7E0E3F0E01082E1E3F0E010822B
:10017000E7E0F1E01082E8E0F1E01082CF91DF915A
:100180000895DF93CF93CDB7DEB7EAE7F0E01082B2
:10019000EBE7F0E01082ECE7F0E080E28083E0E55E
:1001A000F0E080E88083EAE7F0E086E88083CF91A2
:1001B000DF910895DF93CF930F920F92CDB7DEB703
:1001C00089836A83E8E2F1E089818083EAE2F1E0F1
:1001D0008A8180830F900F90CF91DF910895DF93F4
:1001E000CF93CDB7DEB7E1E2F0E08FE08083E2E2CB
:1001F000F0E01082EAE0F1E088E18083EBE0F1E0FA
:1002000088E18083CF91DF910895DF93CF93CDB7BD
:10021000DEB7E2E2F0E086E08083CF91DF910895DF
:10022000DF93CF93CDB7DEB7E2E2F0E01082CF915B
:10023000DF910895DF93CF93CDB7DEB7E2E2F0E030
:1002400089E08083CF91DF910895DF93CF93CDB77D
:10025000DEB7E2E2F0E085E08083CF91DF910895A0
:10026000DF93CF93CDB7DEB7E2E2F0E08AE08083A0
:10027000CF91DF910895DF93CF93CDB7DEB7F89498
:10028000AAE6B0E0EAE6F0E0808182608C93ADE31C
:10029000B0E0EDE3F0E0808180618C937894CF91C1
:1002A000DF910895DF93CF93CDB7DEB7F894AAE638
:1002B000B0E0EAE6F0E0808188608C93ADE3B0E0E6
:1002C000EDE3F0E0808180628C937894CF91DF91B0
:1002D00008951F920F920FB60F9211248F939F9340
:1002E000DF93CF93CDB7DEB78091870490918804D8
:1002F00001969093880480938704CF91DF919F911A
:100300008F910F900FBE0F901F9018951F920F9214
:100310000FB60F9211248F939F93DF93CF93CDB796
:10032000DEB78091590490915A04019690935A0433
:1003300080935904CF91DF919F918F910F900FBEC1
:100340000F901F901895DF93CF93CDB7DEB72A9704
:100350000FB6F894DEBF0FBECDBF9A87898780E0C5
:1003600090E0A0E0B0E08D839E83AF83B8871982D0
:100370001A821B821C8289859A85CC01A0E0B0E09C
:10038000BC01CD010E947F28DC01CB01BC01CD0165
:1003900025EE30ED4AEA50E40E949126DC01CB01C3
:1003A0008D839E83AF83B8876D817E818F81988591
:1003B0000E94C123DC01CB0189839A83AB83BC8378
:1003C00010925A04109259040E9405018091590418
:1003D00090915A049C01442737FD4095542F898100
:1003E0009A81AB81BC8182179307A407B50770F788
:1003F0000E9410012A960FB6F894DEBF0FBECDBF43
:10040000CF91DF910895DF93CF93CDB7DEB72A97D1
:100410000FB6F894DEBF0FBECDBF9A87898780E004
:1004200090E0A0E0B0E08D839E83AF83B88719820F
:100430001A821B821C8289859A85CC01A0E0B0E0DB
:10044000BC01CD010E947F28DC01CB01BC01CD01A4
:1004500025EE30ED4AEA50E40E949126DC01CB0102
:100460008D839E83AF83B8876D817E818F819885D0
:100470000E94C123DC01CB0189839A83AB83BC83B7
:1004800010925A04109259040E941A018091590442
:1004900090915A049C01442737FD4095542F89813F
:1004A0009A81AB81BC8182179307A407B50770F7C7
:1004B0000E9410012A960FB6F894DEBF0FBECDBF82
:1004C000CF91DF910895DF93CF93CDB7DEB72C970F
:1004D0000FB6F894DEBF0FBECDBF9A8789877C87A1
:1004E0006B8784E664E60E94DA0080E090E0A0E09A
:1004F000B0E08D839E83AF83B88719821A821B82F6
:100500001C8210925A04109259041092880410927E
:1005100087048B859C858130910509F03FC08985D2
:100520009A85CC01A0E0B0E0BC01CD010E947F28FB
:10053000DC01CB01BC01CD0120E030E04BE153E414
:100540000E949725DC01CB01BC01CD0128E431EEEE
:1005500042E850E40E949126DC01CB01BC01CD01B0
:1005600020E030E044E353E40E949126DC01CB011B
:100570008D839E83AF83B8876D817E818F819885BF
:100580000E94C123DC01CB01CC01A0E0B0E0898353
:100590009A83AB83BC830E94250143C08B859C85D5
:1005A00082309105F1F589859A85CC01A0E0B0E013
:1005B000BC01CD010E947F28DC01CB01BC01CD0133
:1005C00020E030E041E153E40E949725DC01CB01BB
:1005D000BC01CD0128E431EE42E850E40E949126AE
:1005E000DC01CB01BC01CD0120E030E044E353E469
:1005F0000E949126DC01CB018D839E83AF83B88757
:100600006D817E818F8198850E94C123DC01CB01A1
:10061000CC01A0E0B0E089839A83AB83BC830E94C5
:1006200030018091590490915A049C01442737FD70
:100630004095542F89819A81AB81BC812817390755
:100640004A075B0790F480918704909188049C018D
:10065000442737FD4095542F89819A81AB81BC8115
:10066000281739074A075B07E0F20E9410012C9611
:100670000FB6F894DEBF0FBECDBFCF91DF910895C6
:10068000DF93CF930F920F92CDB7DEB78A838A8123
:10069000883020F0EBE7F0E088E080838A81877083
:1006A0008A83ECE7F0E08A8180628083AAE7B0E089
:1006B000EAE7F0E0808180648C93EAE7F0E08081F3
:1006C000882F90E0807190700097B9F3E9E7F0E02F
:1006D00080818983AAE7B0E0EAE7F0E08081806169
:1006E0008C93EBE7F0E0108289810F900F90CF910F
:1006F000DF910895DF93CF93CDB7DEB70E94EF006F
:100700000E943B010E9452010E949500F8940E94B1
:10071000AE000E94C10078940E94B6230E940B1A7A
:100720000E940A1F24C08091000290910102813032
:10073000910511F40E94230A809100029091010218
:100740008230910511F40E94310D80910002909148
:1007500001028330910511F40E948D1380910002F3
:10076000909101028430910511F40E943F1880910C
:1007700000029091010285309105A9F680E090E099
:10078000CF91DF910895DF93CF930F920F92CDB762
:10079000DEB7109201021092000280910002909147
:1007A00001029E012F5F3F4F880F991FFC01EF5AF6
:1007B000FB4F318320838091000290910102880FCA
:1007C000991FFC01EF5AFB4F808191810E946F06B7
:1007D000909386048093850420918504309186044B
:1007E00080915B0490915C04A901481B590BCA01DC
:1007F0000E9429060E9446088CE390E00E94A30113
:100800008091000290910102880F991FFC01EF5A1C
:10081000FB4F2081318180915B0490915C040596AF
:10082000880F991FF901E80FF91F808191810A97BC
:1008300062E070E00E9463028091000290910102E8
:1008400001969093010280930002809100029091A2
:100850000102880F991FFC01EF5AFB4F80819181A3
:100860000E946F06909392048093910420919104CA
:100870003091920480915D0490915E04A901481B1F
:10088000590BCA010E9429060E9446088CE390E099
:100890000E94A3018091000290910102880F991F8C
:1008A000FC01EF5AFB4F2081318180915D049091D2
:1008B0005E040596880F991FF901E80FF91F8081E2
:1008C00091810A9762E070E00E94630280910002C9
:1008D0009091010201969093010280930002809111
:1008E000000290910102880F991FFC01EF5AFB4F03
:1008F000808191810E946F06909384048093830489
:10090000209183043091840480915F04909160046D
:10091000A901481B590BCA010E9429060E944608DA
:1009200080E090E00E946E2CDF93CF93CDB7DEB7CE
:10093000A4970FB6F894DEBF0FBECDBF80E197E25B
:100940009CA38BA38FEF9FEF9AA389A318A21F8E5E
:100950002AC08F8D98A1880F991F880F991F880F23
:10096000991FFC01E759FB4F208131818BA19CA18C
:10097000281739079CF48F8D98A1880F991F880F2D
:10098000991F880F991FFC01E759FB4F80819181C6
:100990009CA38BA38F8D98A19AA389A38F8D98A1D7
:1009A000019698A38F8F8F8D98A1843091058CF23A
:1009B0000E94BB2281E090E061E070E00E94792219
:1009C00088E092E00E945C2282E090E061E070E0CA
:1009D0000E9479221E8E1D8EAEC089A19AA12D8DF6
:1009E0003E8D880F991F880F991F820F931F880FC4
:1009F000991FFC01ED59FB4F808191812AE234E07F
:100A0000B9014AE050E00E943D2C4D8D5E8D89A1D8
:100A10009AA12D8D3E8D880F991F880F991F820FE7
:100A2000931F880F991FFC01ED59FB4F20813181E5
:100A3000CA01880F991FFC01E55AFB4F31832083BF
:100A40008AE294E00E945C2280E090E0AAEFB4E4A5
:100A5000898F9A8FAB8FBC8F698D7A8D8B8D9C8D92
:100A60002DEC3CEC4CE255E40E949725DC01CB01D7
:100A70008D8B9E8BAF8BB88F6D897E898F89988D7A
:100A800020E030E040E85FE30E949D2788232CF4BB
:100A900081E090E09C8B8B8B3FC06D897E898F8934
:100AA000988D20E03FEF4FE757E40E943D2718164E
:100AB0004CF5698D7A8D8B8D9C8D20E030E040E285
:100AC00051E40E949725DC01CB01BC01CD010E94BD
:100AD000C123DC01CB019C8B8B8B0FC084E191E0A7
:100AE0009A8B898B89899A890197F1F79A8B898BDF
:100AF0008B899C8901979C8B8B8B8B899C89009718
:100B000069F714C06D897E898F89988D0E94C123F1
:100B1000DC01CB019C8B8B8B8B899C89988B8F877D
:100B20008F8598890197F1F7988B8F878D8D9E8D92
:100B300001969E8F8D8F8D8D9E8D833091050CF447
:100B40004CCF8BA19CA12AE234E0B9014AE050E0ED
:100B50000E943D2C8AE294E00E945C2280E090E4B6
:100B6000ACE9B5E48B879C87AD87BE876B857C85B8
:100B70008D859E852DEC3CEC4CE255E40E9497253A
:100B8000DC01CB018F839887A987BA876F8178852D
:100B900089859A8520E030E040E85FE30E949D2748
:100BA00088232CF481E090E09E838D833FC06F8189
:100BB000788589859A8520E03FEF4FE757E40E94CA
:100BC0003D2718164CF56B857C858D859E8520E02C
:100BD00030E040E251E40E949725DC01CB01BC01EA
:100BE000CD010E94C123DC01CB019E838D830FC008
:100BF00084E191E09C838B838B819C810197F1F749
:100C00009C838B838D819E8101979E838D838D81B3
:100C10009E81009769F714C06F81788589859A85D0
:100C20000E94C123DC01CB019E838D838D819E8137
:100C30009A83898389819A810197F1F79A838983BD
:100C4000A4960FB6F894DEBF0FBECDBFCF91DF9153
:100C50000895DF93CF93CDB7DEB727970FB6F894FB
:100C6000DEBF0FBECDBF9F838E831A82198229C03B
:100C700081E00E9440038D8382E00E9440038C83C8
:100C800083E00E9440038B838C818F3070F48981D4
:100C90009A81009761F48E819F8101979F838E8353
:100CA00081E090E09A83898302C01A8219828FE5DD
:100CB0006FE50E94DA008AE090E062E070E00E9456
:100CC00063028E819F811816190694F227960FB63B
:100CD000F894DEBF0FBECDBFCF91DF9108950F9383
:100CE0001F93DF93CF93CDB7DEB7A7970FB6F894D6
:100CF000DEBF0FBECDBF9AA389A31C8A1B8A0E94A8
:100D0000BB2281E090E061E070E00E94792286E100
:100D100092E00E945C22188A1F861A8A198A78C07B
:100D200081E00E9440038F8B82E00E9440038E8B03
:100D300083E00E9440038D8B8E898F3008F057C06E
:100D40008F859889009709F054C0E9A1FAA180A184
:100D500091A10196E9A1FAA191A380A38B899C8915
:100D600029A13AA10596880F991FF901E80FF91FEB
:100D700089899A89918380830B891C8982E290E01A
:100D80000E94382BAC0129A13AA1C8010196880F15
:100D9000991FF901E80FF91F518340838B899C89C2
:100DA00029A13AA10196880F991FF901E80FF91FAF
:100DB000808191810E94D7078B899C8929A13AA1C2
:100DC0000196880F991FF901E80FF91F0190F08132
:100DD000E02D89A19AA1918380838B899C890196BA
:100DE0009C8B8B8B81E090E0988B8F8702C0188A58
:100DF0001F8684E664E60E94DA0085E090E061E008
:100E000070E00E94630289899A8905969A8B898B82
:100E100080910202909103029C012C543F4F8989DA
:100E20009A89281739070CF07BCFCE0148969CA3EE
:100E30008BA3EEE2F2E0FEA3EDA3F8E0FFA3EDA1A9
:100E4000FEA100808DA19EA101969EA38DA3EBA182
:100E5000FCA100828BA19CA101969CA38BA39FA1C6
:100E600091509FA3EFA1EE2351F718A28B89805DCB
:100E70008F8F18A20E94BB2282E090E061E070E0B8
:100E80000E9479228FE192E00E945C2280E090E053
:100E9000AAE7B4E48B879C87AD87BE876B857C858A
:100EA0008D859E852DEC3CEC4CE255E40E94972507
:100EB000DC01CB018F839887A987BA876F817885FA
:100EC00089859A8520E030E040E85FE30E949D2715
:100ED00088232CF481E090E09E838D833FC06F8156
:100EE000788589859A8520E03FEF4FE757E40E9497
:100EF0003D2718164CF56B857C858D859E8520E0F9
:100F000030E040E251E40E949725DC01CB01BC01B6
:100F1000CD010E94C123DC01CB019E838D830FC0D4
:100F200084E191E09C838B838B819C810197F1F715
:100F30009C838B838D819E8101979E838D838D8180
:100F40009E81009769F714C06F81788589859A859D
:100F50000E94C123DC01CB019E838D838D819E8104
:100F60009A83898389819A810197F1F79A8389838A
:100F700081E090E061E070E00E947922CE01489625
:100F80000E945C2284E190E00E94030284E664E611
:100F90000E94DA008B899C89A7960FB6F894DEBF71
:100FA0000FBECDBFCF91DF911F910F910895DF93B9
:100FB000CF930F920F92CDB7DEB79A838983E981E1
:100FC000FA8111821082E981FA8113821282E98109
:100FD000FA8115821482E981FA8117821682E981E9
:100FE000FA8111861086E981FA81118A108AE981D5
:100FF000FA8180899189E981FA8197878687E981D9
:10100000FA8186859785E981FA8195878487E981C8
:10101000FA8184859585E981FA8193878287E981C0
:10102000FA81178E168EE981FA81868D978DE98176
:10103000FA81958F848FE981FA81848D958DE9817C
:10104000FA81938F828FE981FA81828D938DE98174
:10105000FA81918F808FE981FA81808D918DE9816C
:10106000FA81978B868BE981FA8186899789E98154
:10107000FA81958B848BE981FA818FEF9FEF91A3A1
:1010800080A30F900F90CF91DF910895DF93CF93BE
:10109000CDB7DEB7A1970FB6F894DEBF0FBECDBFB8
:1010A0000E94BB2281E090E061E070E00E94792222
:1010B00087E392E00E945C228091590490915A0447
:1010C0009E8F8D8F80E090E0AAE7B4E4898F9A8F9D
:1010D000AB8FBC8F698D7A8D8B8D9C8D2DEC3CEC0C
:1010E0004CE255E40E949725DC01CB018D8B9E8B51
:1010F000AF8BB88F6D897E898F89988D20E030E025
:1011000040E85FE30E949D2788232CF481E090E073
:101110009C8B8B8B3FC06D897E898F89988D20E059
:101120003FEF4FE757E40E943D2718164CF5698DB5
:101130007A8D8B8D9C8D20E030E040E251E40E945E
:101140009725DC01CB01BC01CD010E94C123DC014C
:10115000CB019C8B8B8B0FC084E191E09A8B898BA8
:1011600089899A890197F1F79A8B898B8B899C8958
:1011700001979C8B8B8B8B899C89009769F714C096
:101180006D897E898F89988D0E94C123DC01CB01F6
:101190009C8B8B8B8B899C89988B8F878F8598896B
:1011A0000197F1F7988B8F8781E00E94400389A314
:1011B00082E00E94400388A383E00E9440038F8F57
:1011C00089A1833350F088A18F3038F48DE26EE628
:1011D0000E94DA000E940501E7CF8F8D833350F023
:1011E00088A18F3038F48EE66DE20E94DA000E940A
:1011F0000501DACF89A18F3008F01AC188A18F309C
:1012000008F016C18F8D8F3008F012C10E941001B6
:1012100084E664E60E94DA000E94BB2281E090E04E
:1012200061E070E00E9479222091590430915A04C3
:101230008D8D9E8DA901481B590BCA01AA2797FDC8
:10124000A095BA2FBC01CD010E94CD27DC01CB01B6
:10125000BC01CD0125EE30ED4AEA50E40E9497250D
:10126000DC01CB01BC01CD0120E030E040E251E4E3
:101270000E949126DC01CB01BC01CD0120E030E0D1
:1012800040E351E40E946A25DC01CB01BC01CD01A1
:101290000E942B28DC01CB012AE234E0B9014AE0AC
:1012A00050E00E943D2C86E492E00E945C228AE29B
:1012B00094E00E945C2282E090E061E070E00E9495
:1012C000792281E592E00E945C2280E090E0AAE72A
:1012D000B4E48B879C87AD87BE876B857C858D85C5
:1012E0009E852DEC3CEC4CE255E40E949725DC01F8
:1012F000CB018F839887A987BA876F817885898585
:101300009A8520E030E040E85FE30E949D27882333
:101310002CF481E090E09E838D833FC06F817885BF
:1013200089859A8520E03FEF4FE757E40E943D27EB
:1013300018164CF56B857C858D859E8520E030E008
:1013400040E251E40E949725DC01CB01BC01CD01B4
:101350000E94C123DC01CB019E838D830FC084E1F9
:1013600091E09C838B838B819C810197F1F79C8317
:101370008B838D819E8101979E838D838D819E813C
:10138000009769F714C06F81788589859A850E94D6
:10139000C123DC01CB019E838D838D819E819A8345
:1013A000898389819A810197F1F79A8389832091B2
:1013B000590430915A048D8D9E8DA901481B590BFB
:1013C000CA01AA2797FDA095BA2FBC01CD010E94A2
:1013D000CD27DC01CB01BC01CD0125EE30ED4AEA81
:1013E00050E40E949725DC01CB01BC01CD0120E037
:1013F00030E040E251E40E949126DC01CB01BC01C7
:10140000CD0120E030E040E351E40E946A25DC0198
:10141000CB01BC01CD010E942B28DC01CB01A196A0
:101420000FB6F894DEBF0FBECDBFCF91DF91089508
:1014300088A18F3008F0B8CE83E763E70E94DA0016
:101440000E940501B1CE0F931F93DF93CF93CDB7C9
:10145000DEB7AA970FB6F894DEBF0FBECDBF80915E
:10146000000290910102880F991FFC01E25FFB4F7F
:1014700080819181009709F033C28091220490917C
:101480002304009709F045C0809100029091010269
:10149000880F991FFC01EF5AFB4F8FE294E0918374
:1014A00080838091000290910102880F991FFC01B6
:1014B000EF5AFB4F808191810E946F0690938604C2
:1014C000809385040E94BB2281E090E061E070E09F
:1014D0000E9479228FE592E00E945C2282E090E0F7
:1014E00061E070E00E9479228091850490918604E9
:1014F0002AE234E0B9014AE050E00E943D2C8AE241
:1015000094E00E945C2281E090E090932304809319
:10151000220410928A0410928904ACC0809189043C
:1015200090918A04019690938A0480938904209173
:10153000890430918A04809185049091860428174B
:1015400039070CF497C082E090E061E070E00E94FF
:10155000792287E692E00E945C2284E190E00E947A
:1015600003028EEB90E062E070E00E9463028091E3
:10157000000290910102880F991FFC01EF5AFB4F66
:10158000808191810E94E52B80E090E0AAE7B4E49D
:101590008FA398A7A9A7BAA76FA178A589A59AA58F
:1015A0002DEC3CEC4CE255E40E949725DC01CB018C
:1015B0008BA39CA3ADA3BEA36BA17CA18DA19EA177
:1015C00020E030E040E85FE30E949D2788232CF470
:1015D00081E090E09AA389A33FC06BA17CA18DA17B
:1015E0009EA120E03FEF4FE757E40E943D271816E9
:1015F0004CF56FA178A589A59AA520E030E040E2DE
:1016000051E40E949725DC01CB01BC01CD010E9471
:10161000C123DC01CB019AA389A30FC084E191E02F
:1016200098A38F8F8F8D98A10197F1F798A38F8F33
:1016300089A19AA101979AA389A389A19AA1009748
:1016400069F714C06BA17CA18DA19EA10E94C1234A
:10165000DC01CB019AA389A389A19AA19E8F8D8FCA
:101660008D8D9E8D0197F1F79E8F8D8F0E94940432
:101670000E94C3038091000290910102880F991F7C
:10168000FC01EF5AFB4F20813181809189049091B8
:101690008A040A96880F991FF901E80FF91F8081C3
:1016A00091818130910509F439CF8091890490911D
:1016B0008A049C012F5F3F4FC901880F991F880F33
:1016C000991F880F991F821B930B9093030280939D
:1016D00002028091000290910102AC014F5F5F4FC6
:1016E0008091000290910102880F991FFC01EF5A2E
:1016F000FB4F208131818091890490918A04019669
:10170000880F991FF901E80FF91F20813181CA0163
:10171000880F991FFC01EF5AFB4F318320832091E2
:101720008504309186048091890490918A04A901EE
:10173000481B590BCA010E9429060E94BB2281E066
:1017400090E061E070E00E9479228FE692E00E94D2
:101750005C2282E090E061E070E00E94792280915A
:10176000000290910102880F991FFC01EF5AFB4F74
:10177000208131818091890490918A040596880F97
:10178000991FF901E80FF91F808191812AE234E065
:10179000B9014AE050E00E943D2C8AE294E00E94A8
:1017A0005C228091040290910502019690930502BB
:1017B0008093040200910402109105020E944608E1
:1017C0009C01C801880F991FFC01E557FB4F31832D
:1017D000208380E090E0AAE7B4E4898F9A8FAB8FF2
:1017E000BC8F698D7A8D8B8D9C8D2DEC3CEC4CE201
:1017F00055E40E949725DC01CB018D8B9E8BAF8B2E
:10180000B88F6D897E898F89988D20E030E040E81F
:101810005FE30E949D2788232CF481E090E09C8B5D
:101820008B8B3FC06D897E898F89988D20E03FEF3B
:101830004FE757E40E943D2718164CF5698D7A8DC5
:101840008B8D9C8D20E030E040E251E40E94972592
:10185000DC01CB01BC01CD010E94C123DC01CB0125
:101860009C8B8B8B0FC084E191E09A8B898B89894B
:101870009A890197F1F79A8B898B8B899C890197BB
:101880009C8B8B8B8B899C89009769F714C06D8921
:101890007E898F89988D0E94C123DC01CB019C8BAE
:1018A0008B8B8B899C89988B8F878F8598890197E3
:1018B000F1F7988B8F878091000290910102019639
:1018C00090930102809300028091000290910102A6
:1018D000880F991FFC01E25FFB4F11821082B6C096
:1018E0008DE290E00E94A30180910002909101029C
:1018F000880F991FFC01EF5AFB4F208131818091A5
:10190000890490918A040596880F991FF901E80FC0
:10191000F91F808191810A9762E070E00E94630262
:101920008091000290910102880F991FFC01EF5AEB
:10193000FB4F208131818091890490918A040A961D
:10194000880F991FF901E80FF91F81E090E091835A
:1019500080838091000290910102880F991FFC0101
:10196000E25FFB4F1182108280E090E0AAE7B4E4CE
:101970008B879C87AD87BE876B857C858D859E8593
:101980002DEC3CEC4CE255E40E949725DC01CB01A8
:101990008F839887A987BA876F81788589859A858B
:1019A00020E030E040E85FE30E949D2788232CF48C
:1019B00081E090E09E838D833FC06F81788589852B
:1019C0009A8520E03FEF4FE757E40E943D27181625
:1019D0004CF56B857C858D859E8520E030E040E26E
:1019E00051E40E949725DC01CB01BC01CD010E948E
:1019F000C123DC01CB019E838D830FC084E191E084
:101A00009C838B838B819C810197F1F79C838B83D3
:101A10008D819E8101979E838D838D819E8100970C
:101A200069F714C06F81788589859A850E94C123E2
:101A3000DC01CB019E838D838D819E819A83898376
:101A400089819A810197F1F79A838983AA960FB6C3
:101A5000F894DEBF0FBECDBFCF91DF911F910F91E4
:101A600008950F931F93DF93CF93CDB7DEB7C6547E
:101A7000D0400FB6F894DEBF0FBECDBF80910002FC
:101A800090910102880F991FFC01E25FFB4F80815A
:101A90009181009709F070C187E390E00E94A30153
:101AA00080910002909101020197880F991FFC011B
:101AB000EF5AFB4F208131818091890490918A04F3
:101AC0000596880F991FF901E80FF91F20813181D0
:101AD0008091020290910302A901481B590BCA018F
:101AE00062E070E00E946302809100029091010226
:101AF000880F991FFC01EF5AFB4F808191810E9452
:101B00006F0690939204809391040E94BB2281E01F
:101B100090E061E070E00E9479228FE592E00E94FF
:101B20005C2282E090E061E070E00E947922809186
:101B30009104909192042AE234E0B9014AE050E025
:101B40000E943D2C8AE294E00E945C2210922904BB
:101B5000109228048091000290910102AC014F5F25
:101B60005F4F8091000290910102880F991FFC0144
:101B7000EF5AFB4F208131818091280490912904F4
:101B80000196880F991FF901E80FF91F2081318113
:101B9000CA01880F991FFC01EF5AFB4F3183208344
:101BA00080919104909192040E9429060E94BB2288
:101BB00081E090E061E070E00E9479228FE692E09F
:101BC0000E945C2282E090E061E070E00E94792255
:101BD0008091000290910102880F991FFC01EF5A39
:101BE000FB4F208131818091280490912904059632
:101BF000880F991FF901E80FF91F808191812AE26E
:101C000034E0B9014AE050E00E943D2C8AE294E0C1
:101C10000E945C22809104029091050201969093AB
:101C200005028093040200910402109105020E94B3
:101C300046089C01C801880F991FFC01E557FB4F1E
:101C400031832083FE01ED5BFF4F80E090E0AAE747
:101C5000B4E480839183A283B3838E01015C1F4F20
:101C6000FE01ED5BFF4F60817181828193812DECDC
:101C70003CEC4CE255E40E949725DC01CB01F801D5
:101C800080839183A283B383FE01FF96608171817B
:101C90008281938120E030E040E85FE30E949D274D
:101CA00088232CF481E090E09EAF8DAF46C0FE010A
:101CB000FF96608171818281938120E03FEF4FE741
:101CC00057E40E943D27181664F5FE01ED5BFF4FB7
:101CD000608171818281938120E030E040E251E4B3
:101CE0000E949725DC01CB01BC01CD010E94C123DC
:101CF000DC01CB019EAF8DAF0FC084E191E09CAFC2
:101D00008BAF8BAD9CAD0197F1F79CAF8BAF8DADD9
:101D10009EAD01979EAF8DAF8DAD9EAD009769F7DB
:101D200016C0FE01FF9660817181828193810E94BD
:101D3000C123DC01CB019EAF8DAF8DAD9EAD9AAFBF
:101D400089AF89AD9AAD0197F1F79AAF89AF8091CC
:101D5000000290910102019690930102809300028B
:101D60008091000290910102880F991FFC01E25FAF
:101D7000FB4F11821082C5C4809100029091010234
:101D8000880F991FFC01EF5AFB4F20813181809110
:101D90002804909129040A96880F991FF901E80FE9
:101DA000F91F81E090E091838083109229041092C2
:101DB000280409C0809128049091290401969093E9
:101DC0002904809328048091000290910102880FD9
:101DD000991FFC01EF5AFB4F20813181809128042B
:101DE000909129040A96880F991FF901E80FF91FAD
:101DF0008081918181309105E9F220912804309110
:101E000029048091910490919204281739070CF4C9
:101E10006CC20E94BB2281E090E061E070E00E9411
:101E2000792289E792E00E945C2282E090E061E002
:101E300070E00E9479228091000290910102880F47
:101E4000991FFC01EF5AFB4F2081318180912804BA
:101E50009091290401970596880F991FF901E80FC1
:101E6000F91F808191812AE234E0B9014AE050E013
:101E70000E943D2C8AE294E00E945C228CE390E078
:101E80000E94A30180910002909101020197880FA6
:101E9000991FFC01EF5AFB4F208131818091890409
:101EA00090918A040596880F991FF901E80FF91F90
:101EB000808191818F3691050CF4A9C08091000238
:101EC00090910102880F991FFC01EF5AFB4F20816E
:101ED0003181809191049091920401970596880F29
:101EE000991FF901E80FF91F40815181809100028B
:101EF000909101020197880F991FFC01EF5AFB4F47
:101F0000208131818091890490918A040596880FFF
:101F1000991FF901E80FF91F80819181481759072E
:101F2000DCF180910002909101020197880F991FC6
:101F3000FC01EF5AFB4F20813181809189049091FF
:101F40008A040596880F991FF901E80FF91F40814F
:101F500051818091000290910102880F991FFC012C
:101F6000EF5AFB4F2081318180919104909192042E
:101F700001970596880F991FF901E80FF91F8081D5
:101F800091819A01281B390BC90183599E4F62E048
:101F900070E00E946302E1C0809100029091010212
:101FA000880F991FFC01EF5AFB4F208131818091EE
:101FB00091049091920401970596880F991FF90159
:101FC000E80FF91F40815181809100029091010238
:101FD0000197880F991FFC01EF5AFB4F2081318137
:101FE0008091890490918A040596880F991FF901C0
:101FF000E80FF91F80819181FA01E81BF90BCF01ED
:1020000083599E4F62E070E00E946302A6C08091F7
:10201000000290910102880F991FFC01EF5AFB4FBB
:1020200020813181809191049091920401970596CD
:10203000880F991FF901E80FF91F408151818091A4
:102040000002909101020197880F991FFC01EF5A3D
:10205000FB4F208131818091890490918A040596FB
:10206000880F991FF901E80FF91F808191814817A6
:102070005907D4F18091000290910102880F991FB5
:10208000FC01EF5AFB4F20813181809191049091A6
:10209000920401970596880F991FF901E80FF91F1F
:1020A0004081518180910002909101020197880F37
:1020B000991FFC01EF5AFB4F2081318180918904E7
:1020C00090918A040596880F991FF901E80FF91F6E
:1020D000808191819A01281B390BC9010F9762E019
:1020E00070E00E94630239C0809100029091010269
:1020F0000197880F991FFC01EF5AFB4F2081318116
:102100008091890490918A040596880F991FF9019E
:10211000E80FF91F408151818091000290910102E6
:10212000880F991FFC01EF5AFB4F2081318180916C
:1021300091049091920401970596880F991FF901D7
:10214000E80FF91F80819181FA01E81BF90BCF019B
:102150000F9762E070E00E94630281E090E00E94CD
:1021600029060E94BB2281E090E061E070E00E94BD
:10217000792282E892E00E945C220E9446088091C7
:10218000040290910502880F991FFC01E557FB4F4F
:102190001182108280910402909105020197909320
:1021A0000502809304028091000290910102880F41
:1021B000991FFC01EF5AFB4F808191810E94E52B12
:1021C0000E94BB2281E090E061E070E00E947922F1
:1021D0008FE892E00E945C2280E090E0AAE7B4E4FD
:1021E0008DAB9EABAFABB8AF6DA97EA98FA998ADF3
:1021F0002DEC3CEC4CE255E40E949725DC01CB0130
:1022000089AB9AABABABBCAB69A97AA98BA99CA9EA
:1022100020E030E040E85FE30E949D2788232CF413
:1022200081E090E098AB8FA73FC069A97AA98BA9FC
:102230009CA920E03FEF4FE757E40E943D27181686
:102240004CF56DA97EA98FA998AD20E030E040E261
:1022500051E40E949725DC01CB01BC01CD010E9415
:10226000C123DC01CB0198AB8FA70FC084E191E0C3
:102270009EA78DA78DA59EA50197F1F79EA78DA777
:102280008FA598A9019798AB8FA78FA598A90097BC
:1022900069F714C069A97AA98BA99CA90E94C123D6
:1022A000DC01CB0198AB8FA78FA598A99CA78BA722
:1022B0008BA59CA50197F1F79CA78BA780910002A5
:1022C0009091010201979093010280930002809106
:1022D000000290910102880F991FFC01E25FFB4F01
:1022E00081E090E0918380830CC20E94BB2282E057
:1022F00090E061E070E00E9479228091000290916C
:102300000102880F991FFC01EF5AFB4F2081318198
:1023100080912804909129040596880F991FF9014E
:10232000E80FF91F808191812AE234E0B9014AE087
:1023300050E00E943D2C8AE294E00E945C2280E002
:1023400090E0AAE7B4E48FA398A7A9A7BAA76FA1C2
:1023500078A589A59AA52DEC3CEC4CE255E40E94A9
:102360009725DC01CB018BA39CA3ADA3BEA36BA1DE
:102370007CA18DA19EA120E030E040E85FE30E94B7
:102380009D2788232CF481E090E09AA389A33FC085
:102390006BA17CA18DA19EA120E03FEF4FE757E408
:1023A0000E943D2718164CF56FA178A589A59AA51E
:1023B00020E030E040E251E40E949725DC01CB01AF
:1023C000BC01CD010E94C123DC01CB019AA389A3EA
:1023D0000FC084E191E098A38F8F8F8D98A1019712
:1023E000F1F798A38F8F89A19AA101979AA389A346
:1023F00089A19AA1009769F714C06BA17CA18DA156
:102400009EA10E94C123DC01CB019AA389A389A1CB
:102410009AA19E8F8D8F8D8D9E8D0197F1F79E8F46
:102420008D8F8091000290910102AC014F5F5F4F50
:102430008091000290910102880F991FFC01EF5AD0
:10244000FB4F2081318180912804909129040196CD
:10245000880F991FF901E80FF91F20813181CA0106
:10246000880F991FFC01EF5AFB4F3183208382E3D1
:1024700090E00E94A3018091000290910102880FD8
:10248000991FFC01EF5AFB4F208131818091280474
:102490009091290401970596880F991FF901E80F7B
:1024A000F91F8081918162E070E00E94630280E008
:1024B00090E0AAE7B4E4898F9A8FAB8FBC8F698DC7
:1024C0007A8D8B8D9C8D2DEC3CEC4CE255E40E947A
:1024D0009725DC01CB018D8B9E8BAF8BB88F6D89DF
:1024E0007E898F89988D20E030E040E85FE30E948C
:1024F0009D2788232CF481E090E09C8B8B8B3FC040
:102500006D897E898F89988D20E03FEF4FE757E4F2
:102510000E943D2718164CF5698D7A8D8B8D9C8D08
:1025200020E030E040E251E40E949725DC01CB013D
:10253000BC01CD010E94C123DC01CB019C8B8B8BA4
:102540000FC084E191E09A8B898B89899A890197E0
:10255000F1F79A8B898B8B899C8901979C8B8B8B4C
:102560008B899C89009769F714C06D897E898F8952
:10257000988D0E94C123DC01CB019C8B8B8B8B89B6
:102580009C89988B8F878F8598890197F1F7988B15
:102590008F8720919104309192048091280490912A
:1025A0002904A901481B590BCA010E9429060E944F
:1025B000BB2281E090E061E070E00E94792289E92D
:1025C00092E00E945C2280910402909105020196A3
:1025D0009093050280930402009104021091050279
:1025E0000E9446089C01C801880F991FFC01E5570D
:1025F000FB4F3183208380E090E0AAE7B4E48B872F
:102600009C87AD87BE876B857C858D859E852DECEF
:102610003CEC4CE255E40E949725DC01CB018F8312
:102620009887A987BA876F81788589859A8520E000
:1026300030E040E85FE30E949D2788232CF481E08E
:1026400090E09E838D833FC06F81788589859A85D0
:1026500020E03FEF4FE757E40E943D2718164CF566
:102660006B857C858D859E8520E030E040E251E4DD
:102670000E949725DC01CB01BC01CD010E94C12342
:10268000DC01CB019E838D830FC084E191E09C83AC
:102690008B838B819C810197F1F79C838B838D8148
:1026A0009E8101979E838D838D819E81009769F71E
:1026B00014C06F81788589859A850E94C123DC01C9
:1026C000CB019E838D838D819E819A8389838981AD
:1026D0009A810197F1F79A83898380910002909102
:1026E0000102019690930102809300028091000202
:1026F00090910102880F991FFC01E25FFB4F11824C
:102700001082CA5BDF4F0FB6F894DEBF0FBECDBF9D
:10271000CF91DF911F910F9108950F931F93DF9336
:10272000CF93CDB7DEB76C970FB6F894DEBF0FBE70
:10273000CDBF8091000290910102880F991FFC018A
:10274000E25FFB4F80819181009709F035C18CE3F6
:1027500090E00E94A30180910002909101020197F4
:10276000880F991FFC01EF5AFB4F20813181809126
:102770002804909129040596880F991FF901E80F04
:10278000F91F208131818091020290910302A901F9
:10279000481B590BCA0162E070E00E9463028091FD
:1027A000000290910102880F991FFC01EF5AFB4F24
:1027B000808191810E946F069093840480938304AA
:1027C0000E94BB2281E090E061E070E00E947922EB
:1027D0008FE592E00E945C2282E090E061E070E090
:1027E0000E94792280918304909184042AE234E04B
:1027F000B9014AE050E00E943D2C8AE294E00E9438
:102800005C2210922704109226048091000290917D
:102810000102AC014F5F5F4F809100029091010275
:10282000880F991FFC01EF5AFB4F20813181809165
:102830002604909127040196880F991FF901E80F4B
:10284000F91F20813181CA01880F991FFC01EF5ABD
:10285000FB4F3183208380918304909184040E94F4
:1028600029060E94BB2281E090E061E070E00E94B6
:10287000792286EA92E00E945C2280910402909183
:1028800005020196909305028093040200910402D0
:10289000109105020E9446089C01C801880F991FEB
:1028A000FC01E557FB4F3183208380E090E0AAE7ED
:1028B000B4E4898F9A8FAB8FBC8F698D7A8D8B8DA5
:1028C0009C8D2DEC3CEC4CE255E40E949725DC01FC
:1028D000CB018D8B9E8BAF8BB88F6D897E898F8955
:1028E000988D20E030E040E85FE30E949D27882338
:1028F0002CF481E090E09C8B8B8B3FC06D897E89AE
:102900008F89988D20E03FEF4FE757E40E943D27E5
:1029100018164CF5698D7A8D8B8D9C8D20E030E0FA
:1029200040E251E40E949725DC01CB01BC01CD01BE
:102930000E94C123DC01CB019C8B8B8B0FC084E1F7
:1029400091E09A8B898B89899A890197F1F79A8B03
:10295000898B8B899C8901979C8B8B8B8B899C891C
:10296000009769F714C06D897E898F89988D0E94C0
:10297000C123DC01CB019C8B8B8B8B899C89988B31
:102980008F878F8598890197F1F7988B8F87809132
:10299000000290910102019690930102809300023F
:1029A0008091000290910102880F991FFC01E25F63
:1029B000FB4F1182108258C3809100029091010256
:1029C000880F991FFC01EF5AFB4F208131818091C4
:1029D0002604909127040A96880F991FF901E80FA1
:1029E000F91F81E090E09183808310922704109278
:1029F000260409C0809126049091270401969093A3
:102A00002704809326048091000290910102880F90
:102A1000991FFC01EF5AFB4F2081318180912604E0
:102A2000909127040A96880F991FF901E80FF91F62
:102A30008081918181309105E9F2209126043091C5
:102A400027048091830490918404281739070CF49B
:102A50000DC20E94BB2281E090E061E070E00E9424
:102A600079228091000290910102880F991FFC0148
:102A7000EF5AFB4F2081318180918304909184042F
:102A800001970596880F991FF901E80FF91F8081BA
:102A900091812AE234E0B9014AE050E00E943D2CE5
:102AA0008AE294E00E945C2282E090E061E070E0C3
:102AB0000E94792280910002909101020197880F73
:102AC000991FFC01EF5AFB4F20813181809128042E
:102AD000909129040596880F991FF901E80FF91FB5
:102AE000808191812AE234E0B9014AE050E00E94FD
:102AF0003D2C8AE294E00E945C2282E390E00E94F6
:102B0000A30180910002909101020197880F991F03
:102B1000FC01EF5AFB4F2081318180912804909174
:102B200029040596880F991FF901E80FF91F808184
:102B300091818B3591050CF4A9C080910002909190
:102B40000102880F991FFC01EF5AFB4F2081318150
:102B5000809183049091840401970596880F991FB2
:102B6000F901E80FF91F4081518180910002909195
:102B700001020197880F991FFC01EF5AFB4F20813A
:102B8000318180912804909129040596880F991F1E
:102B9000F901E80FF91F8081918148175907DCF18D
:102BA00080910002909101020197880F991FFC010A
:102BB000EF5AFB4F208131818091280490912904A4
:102BC0000596880F991FF901E80FF91F408151817F
:102BD0008091000290910102880F991FFC01EF5A29
:102BE000FB4F20813181809183049091840401976F
:102BF0000596880F991FF901E80FF91F80819181CF
:102C00009A01281B390BC90183599E4F62E070E07D
:102C10000E946302E1C08091000290910102880F3E
:102C2000991FFC01EF5AFB4F208131818091830471
:102C30009091840401970596880F991FF901E80F78
:102C4000F91F40815181809100029091010201970A
:102C5000880F991FFC01EF5AFB4F20813181809131
:102C60002804909129040596880F991FF901E80F0F
:102C7000F91F808191819A01281B390BC901835961
:102C80009E4F62E070E00E946302A6C08091000245
:102C900090910102880F991FFC01EF5AFB4F208190
:102CA0003181809183049091840401970596880F67
:102CB000991FF901E80FF91F4081518180910002AD
:102CC000909101020197880F991FFC01EF5AFB4F69
:102CD0002081318180912804909129040596880FE4
:102CE000991FF901E80FF91F808191814817590751
:102CF000D4F18091000290910102880F991FFC018C
:102D0000EF5AFB4F2081318180918304909184049C
:102D100001970596880F991FF901E80FF91F408167
:102D2000518180910002909101020197880F991FB3
:102D3000FC01EF5AFB4F2081318180912804909152
:102D400029040596880F991FF901E80FF91F808162
:102D500091819A01281B390BC901499762E070E003
:102D60000E94630239C08091000290910102019794
:102D7000880F991FFC01EF5AFB4F20813181809110
:102D80002804909129040596880F991FF901E80FEE
:102D9000F91F408151818091000290910102880FBA
:102DA000991FFC01EF5AFB4F2081318180918304F0
:102DB0009091840401970596880F991FF901E80FF7
:102DC000F91F808191819A01281B390BC90149970C
:102DD00062E070E00E94630281E090E00E942906B8
:102DE0000E94BB2281E090E061E070E00E947922C5
:102DF00081EB92E00E945C220E94460880910402CE
:102E000090910502880F991FFC01E557FB4F118235
:102E1000108280910402909105020197909305021F
:102E2000809304028091000290910102880F991F03
:102E3000FC01EF5AFB4F808191810E94E52B80912C
:102E40000002909101020197909301028093000289
:102E50008091000290910102880F991FFC01E25FAE
:102E6000FB4F81E090E091838083FEC0809100025F
:102E700090910102AC014F5F5F4F809100029091F1
:102E80000102880F991FFC01EF5AFB4F208131810D
:102E900080912604909127040196880F991FF901CB
:102EA000E80FF91F20813181CA01880F991FFC01A9
:102EB000EF5AFB4F3183208382E390E00E94A3010D
:102EC0008091000290910102880F991FFC01EF5A36
:102ED000FB4F208131818091260490912704019736
:102EE0000596880F991FF901E80FF91F80819181DC
:102EF00062E070E00E9463022091830430918404B8
:102F00008091260490912704A901481B590BCA01FE
:102F10000E9429060E94BB2281E090E061E070E0FF
:102F20000E9479228EEB92E00E945C2280E090E089
:102F3000AAE7B4E48B879C87AD87BE876B857C85C9
:102F40008D859E852DEC3CEC4CE255E40E94972546
:102F5000DC01CB018F839887A987BA876F81788539
:102F600089859A8520E030E040E85FE30E949D2754
:102F700088232CF481E090E09E838D833FC06F8195
:102F8000788589859A8520E03FEF4FE757E40E94D6
:102F90003D2718164CF56B857C858D859E8520E038
:102FA00030E040E251E40E949725DC01CB01BC01F6
:102FB000CD010E94C123DC01CB019E838D830FC014
:102FC00084E191E09C838B838B819C810197F1F755
:102FD0009C838B838D819E8101979E838D838D81C0
:102FE0009E81009769F714C06F81788589859A85DD
:102FF0000E94C123DC01CB019E838D838D819E8144
:103000009A83898389819A810197F1F79A838983C9
:10301000809104029091050201969093050280939D
:10302000040200910402109105020E9446089C01CE
:10303000C801880F991FFC01E557FB4F318320839E
:103040008091000290910102019690930102809379
:1030500000028091000290910102880F991FFC01EB
:10306000E25FFB4F118210826C960FB6F894DEBFC0
:103070000FBECDBFCF91DF911F910F910895DF93C8
:10308000CF93CDB7DEB760970FB6F894DEBF0FBE13
:10309000CDBF80910602909107020196909307029E
:1030A0008093060280910602909107022091890484
:1030B00030918A04880F991F880F991F880F991FD4
:1030C000FC01ED59FB4F31832083809106029091E2
:1030D00007022091280430912904880F991F880F36
:1030E000991F0196880F991FFC01ED59FB4F318301
:1030F000208380910602909107022091260430914E
:103100002704880F991F0196880F991F880F991F10
:10311000FC01ED59FB4F3183208380910602909191
:103120000702880F991F880F991F880F991FFC01AC
:10313000E759FB4F11821082188A1F862FC04091D9
:103140000602509107028091060290910702880FB3
:10315000991F880F991F880F991FFC01E759FB4F92
:10316000208131818F859889880F991FFC01E5574F
:10317000FB4F80819181280F391FCA01880F991F49
:10318000880F991F880F991FFC01E759FB4F318366
:1031900020838F8598890196988B8F878F85988952
:1031A0008330910564F20E94BB2281E090E061E0EF
:1031B00070E00E9479228BEC92E00E945C2282E017
:1031C00090E061E070E00E94792283EE92E00E943C
:1031D0005C228091060290910702880F991F880F48
:1031E000991F880F991FFC01E759FB4F808191813E
:1031F0002AE234E0B9014AE050E00E943D2C8AE224
:1032000094E00E945C2284E664E60E94DA0087E093
:1032100090E00E94A3018AEA90E062E070E00E94E0
:10322000630281E090E00E9429060E944608809196
:10323000040290910502880F991FFC01E557FB4F8E
:10324000118210828091040290910502019790935F
:1032500005028093040280E090E0AAE7B4E48B8743
:103260009C87AD87BE876B857C858D859E852DEC83
:103270003CEC4CE255E40E949725DC01CB018F83A6
:103280009887A987BA876F81788589859A8520E094
:1032900030E040E85FE30E949D2788232CF481E022
:1032A00090E09E838D833FC06F81788589859A8564
:1032B00020E03FEF4FE757E40E943D2718164CF5FA
:1032C0006B857C858D859E8520E030E040E251E471
:1032D0000E949725DC01CB01BC01CD010E94C123D6
:1032E000DC01CB019E838D830FC084E191E09C8340
:1032F0008B838B819C810197F1F79C838B838D81DC
:103300009E8101979E838D838D819E81009769F7B1
:1033100014C06F81788589859A850E94C123DC015C
:10332000CB019E838D838D819E819A838983898140
:103330009A810197F1F79A83898380910002909195
:103340000102019790930102809300028091000294
:1033500090910102880F991FFC01E25FFB4F81E011
:1033600090E09183808382E090E061E070E00E94D1
:10337000792280910002909101022AE234E0B901A1
:103380004AE050E00E943D2C8AE294E00E945C22D8
:1033900082E090E064E070E00E9479228091000277
:1033A00090910102880F991FFC01E25FFB4F808121
:1033B00091812AE234E0B9014AE050E00E943D2CBC
:1033C0008AE294E00E945C2260960FB6F894DEBF19
:1033D0000FBECDBFCF91DF910895DF93CF93CDB7CF
:1033E000DEB7A7E2B0E0E7E2F0E08081876F8C9380
:1033F000A8E2B0E0E8E2F0E0808180788C93CF91A1
:10340000DF910895DF93CF93CDB7DEB70E94ED191A
:10341000CF91DF9108950F931F93DF93CF93CDB793
:10342000DEB7C057D0400FB6F894DEBF0FBECDBF99
:10343000FE01E359FF4F80E090E0A0E8BFE3808306
:103440009183A283B3838E0107591F4FFE01E35975
:10345000FF4F60817181828193812DEC3CEC4CE2C5
:1034600055E40E949725DC01CB01F801808391830C
:10347000A283B383FE01E759FF4F6081718182818E
:10348000938120E030E040E85FE30E949D2788239D
:1034900044F4FE01E959FF4F81E090E0918380837D
:1034A00064C0FE01E759FF4F608171818281938181
:1034B00020E03FEF4FE757E40E943D2718160CF03D
:1034C00043C0FE01E359FF4F608171818281938186
:1034D00020E030E040E251E40E949725DC01CB017E
:1034E0008E0109591F4FBC01CD010E94C123DC018F
:1034F000CB01F801918380831FC0FE01EB59FF4F80
:1035000084E191E091838083FE01EB59FF4F80813C
:1035100091810197F1F7FE01EB59FF4F9183808371
:10352000DE01A959BF4FFE01E959FF4F808191810A
:10353000019711969C938E93FE01E959FF4F80816C
:1035400091810097D1F627C08E0109591F4FFE01C6
:10355000E759FF4F60817181828193810E94C1236D
:10356000DC01CB01F80191838083DE01AD59BF4FAF
:10357000FE01E959FF4F808191818D939C93FE015B
:10358000ED59FF4F808191810197F1F7FE01ED59CF
:10359000FF4F91838083A8E2B0E0E8E2F0E0808111
:1035A0008E7F8C93A8E2B0E0E8E2F0E080818D7F2E
:1035B0008C93E8E2F0E080E38083A8E2B0E0E8E208
:1035C000F0E0808184608C93FE01E15AFF4F80E03F
:1035D00090E0A0EAB0E480839183A283B3838E015C
:1035E000055A1F4FFE01E15AFF4F608171818281B0
:1035F00093812DEC3CEC4CE255E40E949725DC01D4
:10360000CB01F80180839183A283B383FE01E55A45
:10361000FF4F608171818281938120E030E040E83A
:103620005FE30E949D27882344F4FE01E75AFF4F81
:1036300081E090E09183808364C0FE01E55AFF4FF2
:10364000608171818281938120E03FEF4FE757E4F1
:103650000E943D2718160CF043C0FE01E15AFF4FAF
:10366000608171818281938120E030E040E251E409
:103670000E949725DC01CB018E01075A1F4FBC0128
:10368000CD010E94C123DC01CB01F801918380832D
:103690001FC0FE01E95AFF4F84E191E091838083CE
:1036A000FE01E95AFF4F808191810197F1F7FE01F8
:1036B000E95AFF4F91838083DE01A75ABF4FFE0175
:1036C000E75AFF4F80819181019711969C938E93C9
:1036D000FE01E75AFF4F808191810097D1F627C004
:1036E0008E01075A1F4FFE01E55AFF4F608171811D
:1036F000828193810E94C123DC01CB01F801918377
:103700008083DE01AB5ABF4FFE01E75AFF4F808135
:1037100091818D939C93FE01EB5AFF4F80819181A3
:103720000197F1F7FE01EB5AFF4F91838083A8E2E6
:10373000B0E0E8E2F0E080818B7F8C93FE01EF5AED
:10374000FF4F80E090E0A0E8BFE380839183A283F5
:10375000B3838E01035B1F4FFE01EF5AFF4F608161
:103760007181828193812DEC3CEC4CE255E40E9406
:103770009725DC01CB01F80180839183A283B38379
:10378000FE01E35BFF4F608171818281938120E0C4
:1037900030E040E85FE30E949D27882344F4FE0167
:1037A000E55BFF4F81E090E09183808364C0FE0180
:1037B000E35BFF4F608171818281938120E03FEF65
:1037C0004FE757E40E943D2718160CF043C0FE0156
:1037D000EF5AFF4F608171818281938120E030E058
:1037E00040E251E40E949725DC01CB018E01055B8C
:1037F0001F4FBC01CD010E94C123DC01CB01F801A8
:10380000918380831FC0FE01E75BFF4F84E191E05D
:1038100091838083FE01E75BFF4F80819181019757
:10382000F1F7FE01E75BFF4F91838083DE01A55B2B
:10383000BF4FFE01E55BFF4F80819181019711969B
:103840009C938E93FE01E55BFF4F808191810097F1
:10385000D1F627C08E01055B1F4FFE01E35BFF4FD2
:1038600060817181828193810E94C123DC01CB013F
:10387000F80191838083DE01A95BBF4FFE01E55B08
:10388000FF4F808191818D939C93FE01E95BFF4FF7
:10389000808191810197F1F7FE01E95BFF4F9183F0
:1038A0008083A8E2B0E0E8E2F0E080818E7F8C9334
:1038B000A8E2B0E0E8E2F0E080818D7F8C93E8E25E
:1038C000F0E080E38083A8E2B0E0E8E2F0E080810D
:1038D00084608C93FE01ED5BFF4F80E090E0A0EAF6
:1038E000B0E480839183A283B3838E01015C1F4F78
:1038F000FE01ED5BFF4F60817181828193812DEC30
:103900003CEC4CE255E40E949725DC01CB01F80128
:1039100080839183A283B383FE01FF9660817181CE
:103920008281938120E030E040E85FE30E949D27A0
:1039300088232CF481E090E09EAF8DAF46C0FE015D
:10394000FF96608171818281938120E03FEF4FE794
:1039500057E40E943D27181664F5FE01ED5BFF4F0A
:10396000608171818281938120E030E040E251E406
:103970000E949725DC01CB01BC01CD010E94C1232F
:10398000DC01CB019EAF8DAF0FC084E191E09CAF15
:103990008BAF8BAD9CAD0197F1F79CAF8BAF8DAD2D
:1039A0009EAD01979EAF8DAF8DAD9EAD009769F72F
:1039B00016C0FE01FF9660817181828193810E9411
:1039C000C123DC01CB019EAF8DAF8DAD9EAD9AAF13
:1039D00089AF89AD9AAD0197F1F79AAF89AFA8E2A7
:1039E000B0E0E8E2F0E080818B7F8C9380E090E0B3
:1039F000A0E8BFE38DAB9EABAFABB8AF6DA97EA91E
:103A00008FA998AD2DEC3CEC4CE255E40E94972533
:103A1000DC01CB0189AB9AABABABBCAB69A97AA992
:103A20008BA99CA920E030E040E85FE30E949D273D
:103A300088232CF481E090E098AB8FA73FC069A960
:103A40007AA98BA99CA920E03FEF4FE757E40E9499
:103A50003D2718164CF56DA97EA98FA998AD20E0D9
:103A600030E040E251E40E949725DC01CB01BC012B
:103A7000CD010E94C123DC01CB0198AB8FA70FC001
:103A800084E191E09EA78DA78DA59EA50197F1F7F2
:103A90009EA78DA78FA598A9019798AB8FA78FA5F3
:103AA00098A9009769F714C069A97AA98BA99CA95C
:103AB0000E94C123DC01CB0198AB8FA78FA598A9E9
:103AC0009CA78BA78BA59CA50197F1F79CA78BA71B
:103AD000A8E2B0E0E8E2F0E080818E7F8C93A8E27B
:103AE000B0E0E8E2F0E080818D7F8C93E8E2F0E0E6
:103AF00080E38083A8E2B0E0E8E2F0E080818460C7
:103B00008C9380E090E0A0EAB0E48FA398A7A9A7E7
:103B1000BAA76FA178A589A59AA52DEC3CEC4CE23B
:103B200055E40E949725DC01CB018BA39CA3ADA398
:103B3000BEA36BA17CA18DA19EA120E030E040E856
:103B40005FE30E949D2788232CF481E090E09AA3F4
:103B500089A33FC06BA17CA18DA19EA120E03FEF76
:103B60004FE757E40E943D2718164CF56FA178A542
:103B700089A59AA520E030E040E251E40E94972513
:103B8000DC01CB01BC01CD010E94C123DC01CB01D2
:103B90009AA389A30FC084E191E098A38F8F8F8DA2
:103BA00098A10197F1F798A38F8F89A19AA1019706
:103BB0009AA389A389A19AA1009769F714C06BA160
:103BC0007CA18DA19EA10E94C123DC01CB019AA3FF
:103BD00089A389A19AA19E8F8D8F8D8D9E8D01972E
:103BE000F1F79E8F8D8FA8E2B0E0E8E2F0E08081EF
:103BF0008B7F8C9380E090E0A0E8BFE3898F9A8F61
:103C0000AB8FBC8F698D7A8D8B8D9C8D2DEC3CECB0
:103C10004CE255E40E949725DC01CB018D8B9E8BF5
:103C2000AF8BB88F6D897E898F89988D20E030E0C9
:103C300040E85FE30E949D2788232CF481E090E018
:103C40009C8B8B8B3FC06D897E898F89988D20E0FE
:103C50003FEF4FE757E40E943D2718164CF5698D5A
:103C60007A8D8B8D9C8D20E030E040E251E40E9403
:103C70009725DC01CB01BC01CD010E94C123DC01F1
:103C8000CB019C8B8B8B0FC084E191E09A8B898B4D
:103C900089899A890197F1F79A8B898B8B899C89FD
:103CA00001979C8B8B8B8B899C89009769F714C03B
:103CB0006D897E898F89988D0E94C123DC01CB019B
:103CC0009C8B8B8B8B899C89988B8F878F85988910
:103CD0000197F1F7988B8F87A8E2B0E0E8E2F0E077
:103CE00080818E7F8C93A8E2B0E0E8E2F0E08081F2
:103CF0008D7F8C93E8E2F0E080E28083A8E2B0E080
:103D0000E8E2F0E0808184608C9380E090E0A0EABB
:103D1000B0E48B879C87AD87BE876B857C858D855E
:103D20009E852DEC3CEC4CE255E40E949725DC018D
:103D3000CB018F839887A987BA876F81788589851A
:103D40009A8520E030E040E85FE30E949D278823C9
:103D50002CF481E090E09E838D833FC06F81788555
:103D600089859A8520E03FEF4FE757E40E943D2781
:103D700018164CF56B857C858D859E8520E030E09E
:103D800040E251E40E949725DC01CB01BC01CD014A
:103D90000E94C123DC01CB019E838D830FC084E18F
:103DA00091E09C838B838B819C810197F1F79C83AD
:103DB0008B838D819E8101979E838D838D819E81D2
:103DC000009769F714C06F81788589859A850E946C
:103DD000C123DC01CB019E838D838D819E819A83DB
:103DE000898389819A810197F1F79A838983A8E26F
:103DF000B0E0E8E2F0E080818B7F8C93C059DF4F28
:103E00000FB6F894DEBF0FBECDBFCF91DF911F91EB
:103E10000F910895DF93CF93CDB7DEB72E970FB6EE
:103E2000F894DEBF0FBECDBF80E090E0A0E8BFE316
:103E30008B879C87AD87BE876B857C858D859E85AE
:103E40002DEC3CEC4CE255E40E949725DC01CB01C3
:103E50008F839887A987BA876F81788589859A85A6
:103E600020E030E040E85FE30E949D2788232CF4A7
:103E700081E090E09E838D833FC06F817885898546
:103E80009A8520E03FEF4FE757E40E943D27181640
:103E90004CF56B857C858D859E8520E030E040E289
:103EA00051E40E949725DC01CB01BC01CD010E94A9
:103EB000C123DC01CB019E838D830FC084E191E09F
:103EC0009C838B838B819C810197F1F79C838B83EF
:103ED0008D819E8101979E838D838D819E81009728
:103EE00069F714C06F81788589859A850E94C123FE
:103EF000DC01CB019E838D838D819E819A83898392
:103F000089819A810197F1F79A83898388E20E94D7
:103F10009E1F81E00E949E1F86E00E949E1F8EE0F1
:103F20000E949E1F80E80E949E1F2E960FB6F89456
:103F3000DEBF0FBECDBFCF91DF910895DF93CF934A
:103F4000CDB7DEB76E970FB6F894DEBF0FBECDBF0C
:103F50008E8F8E8D8D8F8D8D807F8D8FA8E2B0E0BE
:103F6000E8E2F0E080818F708C93A8E2B0E0E8E2B4
:103F7000F0E090818D8D892B8C93A8E2B0E0E8E28F
:103F8000F0E080818E7F8C93A8E2B0E0E8E2F0E080
:103F900080818D7F8C93A8E2B0E0E8E2F0E0808140
:103FA00084608C9380E090E0A0EAB0E4898F9A8FDF
:103FB000AB8FBC8F698D7A8D8B8D9C8D2DEC3CECFD
:103FC0004CE255E40E949725DC01CB018D8B9E8B42
:103FD000AF8BB88F6D897E898F89988D20E030E016
:103FE00040E85FE30E949D2788232CF481E090E065
:103FF0009C8B8B8B3FC06D897E898F89988D20E04B
:104000003FEF4FE757E40E943D2718164CF5698DA6
:104010007A8D8B8D9C8D20E030E040E251E40E944F
:104020009725DC01CB01BC01CD010E94C123DC013D
:10403000CB019C8B8B8B0FC084E191E09A8B898B99
:1040400089899A890197F1F79A8B898B8B899C8949
:1040500001979C8B8B8B8B899C89009769F714C087
:104060006D897E898F89988D0E94C123DC01CB01E7
:104070009C8B8B8B8B899C89988B8F878F8598895C
:104080000197F1F7988B8F87A8E2B0E0E8E2F0E0C3
:1040900080818B7F8C938E8D8F708E8F8E8D82958D
:1040A000807F8E8FA8E2B0E0E8E2F0E080818F7040
:1040B0008C93A8E2B0E0E8E2F0E090818E8D892B4D
:1040C0008C93A8E2B0E0E8E2F0E080818E7F8C93F0
:1040D000A8E2B0E0E8E2F0E080818D7F8C93A8E276
:1040E000B0E0E8E2F0E0808184608C9380E090E0D2
:1040F000A0EAB0E48B879C87AD87BE876B857C8503
:104100008D859E852DEC3CEC4CE255E40E94972574
:10411000DC01CB018F839887A987BA876F81788567
:1041200089859A8520E030E040E85FE30E949D2782
:1041300088232CF481E090E09E838D833FC06F81C3
:10414000788589859A8520E03FEF4FE757E40E9404
:104150003D2718164CF56B857C858D859E8520E066
:1041600030E040E251E40E949725DC01CB01BC0124
:10417000CD010E94C123DC01CB019E838D830FC042
:1041800084E191E09C838B838B819C810197F1F783
:104190009C838B838D819E8101979E838D838D81EE
:1041A0009E81009769F714C06F81788589859A850B
:1041B0000E94C123DC01CB019E838D838D819E8172
:1041C0009A83898389819A810197F1F79A838983F8
:1041D000A8E2B0E0E8E2F0E080818B7F8C936E96FD
:1041E0000FB6F894DEBF0FBECDBFCF91DF9108951B
:1041F000DF93CF93CDB7DEB76E970FB6F894DEBFDF
:104200000FBECDBF8E8F8E8D8D8F8D8D807F8D8FCC
:10421000A8E2B0E0E8E2F0E080818F708C93A8E241
:10422000B0E0E8E2F0E090818D8D892B8C93A8E2DC
:10423000B0E0E8E2F0E0808181608C93A8E2B0E039
:10424000E8E2F0E080818D7F8C93A8E2B0E0E8E2C4
:10425000F0E0808184608C9380E090E0A0EAB0E49C
:10426000898F9A8FAB8FBC8F698D7A8D8B8D9C8D4A
:104270002DEC3CEC4CE255E40E949725DC01CB018F
:104280008D8B9E8BAF8BB88F6D897E898F89988D32
:1042900020E030E040E85FE30E949D2788232CF473
:1042A00081E090E09C8B8B8B3FC06D897E898F89EC
:1042B000988D20E03FEF4FE757E40E943D27181606
:1042C0004CF5698D7A8D8B8D9C8D20E030E040E23D
:1042D00051E40E949725DC01CB01BC01CD010E9475
:1042E000C123DC01CB019C8B8B8B0FC084E191E05F
:1042F0009A8B898B89899A890197F1F79A8B898B97
:104300008B899C8901979C8B8B8B8B899C890097CF
:1043100069F714C06D897E898F89988D0E94C123A9
:10432000DC01CB019C8B8B8B8B899C89988B8F8735
:104330008F8598890197F1F7988B8F87A8E2B0E075
:10434000E8E2F0E080818B7F8C938E8D8F708E8F72
:104350008E8D8295807F8E8FA8E2B0E0E8E2F0E05B
:1043600080818F708C93A8E2B0E0E8E2F0E0908169
:104370008E8D892B8C93A8E2B0E0E8E2F0E080819A
:1043800081608C93A8E2B0E0E8E2F0E080818D7F6C
:104390008C93A8E2B0E0E8E2F0E0808184608C9346
:1043A00080E090E0A0EAB0E48B879C87AD87BE8771
:1043B0006B857C858D859E852DEC3CEC4CE255E42F
:1043C0000E949725DC01CB018F839887A987BA8744
:1043D0006F81788589859A8520E030E040E85FE349
:1043E0000E949D2788232CF481E090E09E838D839A
:1043F0003FC06F81788589859A8520E03FEF4FE740
:1044000057E40E943D2718164CF56B857C858D85F9
:104410009E8520E030E040E251E40E949725DC01D7
:10442000CB01BC01CD010E94C123DC01CB019E83E5
:104430008D830FC084E191E09C838B838B819C8171
:104440000197F1F79C838B838D819E8101979E83D9
:104450008D838D819E81009769F714C06F81788567
:1044600089859A850E94C123DC01CB019E838D83BF
:104470008D819E819A83898389819A810197F1F741
:104480009A838983A8E2B0E0E8E2F0E080818B7F44
:104490008C936E960FB6F894DEBF0FBECDBFCF9152
:1044A000DF910895DF93CF93CDB7DEB780E80E9408
:1044B0009E1FCF91DF910895DF93CF930F920F92BC
:1044C000CDB7DEB79A8389830AC0E981FA818081FA
:1044D0000E94F82089819A8101969A838983E981D3
:1044E000FA818081882389F70F900F90CF91DF9117
:1044F0000895DF93CF9300D00F92CDB7DEB78983B5
:104500006A838981282F30E03C832B838B819C81B7
:1045100082309105D9F02B813C812330310534F470
:104520008B819C818130910561F01EC02B813C8183
:104530002330310581F08B819C818430910581F09D
:1045400013C08A8181580E949E1F0EC08A818154A7
:104550000E949E1F09C08A818D560E949E1F04C022
:104560008A818D520E949E1F0F900F900F900F9086
:10457000CF91DF910895DF93CF93CDB7DEB781E080
:1045800061E00E9479228DEE92E00E945C2282E03E
:1045900061E00E9479228DEE92E00E945C22CF9130
:1045A000DF910895DF93CF93CDB7DEB727970FB68E
:1045B000F894DEBF0FBECDBF8A836B835D834C83CF
:1045C0003F832E8319828A81882319F08B81882367
:1045D00019F40E94522204C08A816B810E947922C0
:1045E0008E819F818530910519F089818130A9F4F0
:1045F0008C819D8120E137E2B9010E94ED2ACB0137
:10460000C096909394048093930480919304909126
:1046100094040E94F82081E089838E819F818430F8
:10462000910519F08981813011F58C819D8128EEE9
:1046300033E0B9010E94ED2ACB019093520480939C
:10464000510480915104909152042AE030E0B90164
:104650000E94ED2AC09690939C0480939B048091C5
:104660009B0490919C040E94F82081E089838E81B4
:104670009F818330910519F08981813011F58C81FA
:104680009D8124E630E0B9010E94ED2ACB01909390
:1046900052048093510480915104909152042AE075
:1046A00030E0B9010E94ED2AC0969093980480935F
:1046B000970480919704909198040E94F82081E0DB
:1046C00089838E819F818230910519F089818130A3
:1046D00011F58C819D812AE030E0B9010E94ED2A1C
:1046E000CB01909352048093510480915104909196
:1046F00052042AE030E0B9010E94ED2AC09690935E
:1047000096048093950480919504909196040E945C
:10471000F82081E089838E819F818130910519F095
:104720008981813091F48C819D812AE030E0B9014A
:104730000E94ED2AC09690939A04809399048091E8
:10474000990490919A040E94F8208E819F8186306E
:1047500091051CF085E40E94F82027960FB6F89486
:10476000DEBF0FBECDBFCF91DF910895DF93CF9312
:10477000CDB7DEB7F8940E94021A7894CF91DF91FA
:104780000895EF92FF920F931F937B018C0120E01D
:1047900030E040E05FE40E946D2788238CF0C80180
:1047A000B70120E030E040E05FE40E9439250E943C
:1047B0002B289B01AC01205030404040504806C09F
:1047C000C801B7010E942B289B01AC01B901CA01A5
:1047D0001F910F91FF90EF900895A0E0B0E0E3EFFC
:1047E000F3E20C94012BDC012B01FA019C91923035
:1047F00008F439C1EB018881823008F433C1943068
:1048000069F4843009F02FC111969C911197898128
:10481000981709F428C1AEEFB2E025C1843009F43D
:1048200021C18230A9F4923009F01DC19A01AD0175
:1048300088E0EA010990AE01E90109929E018150E8
:10484000C1F7E201898111969C918923818308C176
:10485000923009F407C112962D903C901397EB010A
:104860008A819B811496AD90BD90CD90DC90179776
:10487000EC80FD800E811F819101281B390BB9014D
:1048800037FF04C066277727621B730B6032710500
:104890000CF061C0121613066CF537014801062EA4
:1048A00004C096948794779467940A94D2F721E091
:1048B00030E040E050E004C0220F331F441F551F7A
:1048C0006A95D2F721503040404050402E213F2180
:1048D00040235123211531054105510521F021E0E7
:1048E00030E040E050E079018A01E628F728082905
:1048F00019293CC0232BD1F1260E371E3501460164
:10490000062E04C096948794779467940A94D2F7FD
:1049100021E030E040E050E004C0220F331F441F8C
:10492000551F6A95D2F721503040404050402A210F
:104930003B214C215D21211531054105510521F017
:1049400021E030E040E050E059016A01A628B72894
:10495000C828D9280BC0821593052CF01C01AA2465
:10496000BB24650103C0EE24FF24870111969C91AE
:10497000D20111968C91981709F445C0992339F00A
:10498000A80197012A193B094C095D0906C0A60137
:1049900095012E193F09400B510B57FD08C011829C
:1049A0003382228224833583468357831DC081E06E
:1049B00081833382228288279927DC01821B930B13
:1049C000A40BB50B84839583A683B7830DC0220FF8
:1049D000331F441F551F24833583468357838281A9
:1049E0009381019793838283248135814681578106
:1049F000DA01C9010197A109B1098F5F9F4FAF4F3C
:104A0000BF4328F30BC0918333822282EA0CFB1C44
:104A10000C1D1D1DE482F5820683178383E08083CD
:104A2000248135814681578157FF1AC0C901AA27C1
:104A300097FDA095BA2F81709070A070B0705695B8
:104A4000479537952795822B932BA42BB52B8483E1
:104A50009583A683B7838281938101969383828312
:104A6000DF0101C0D201CD01CDB7DEB7E2E10C9488
:104A70001D2BA0E2B0E0EFE3F5E20C940D2B69836F
:104A80007A838B839C832D833E834F835887E9E011
:104A9000EE2EF12CEC0EFD1ECE010196B7010E9408
:104AA0001C2A8E010F5E1F4FCE010596B8010E9491
:104AB0001C2A8A8991E089278A8BC701B801AE0137
:104AC000475E5F4F0E94ED230E944729A096E6E0D3
:104AD0000C94292BA0E2B0E0E0E7F5E20C940D2B5A
:104AE00069837A838B839C832D833E834F8358878E
:104AF000F9E0EF2EF12CEC0EFD1ECE010196B70170
:104B00000E941C2A8E010F5E1F4FCE010596B80130
:104B10000E941C2AC701B801AE01475E5F4F0E9488
:104B2000ED230E944729A096E6E00C94292BA0E2F1
:104B3000B0E0EDE9F5E20C94012B69837A838B8375
:104B40009C832D833E834F835887CE010196BE01FF
:104B5000675F7F4F0E941C2ACE010596BE016F5EE3
:104B60007F4F0E941C2A9985923088F08989823073
:104B7000C8F0943019F4823051F404C0843029F420
:104B8000923081F48EEF92E0C6C0923049F420E07A
:104B90009A858A89981321E02A87CE010996BBC09D
:104BA000823049F420E09A858A89981321E02A8B83
:104BB000CE014196B0C02D843E844F8458886D88C4
:104BC0007E888F88988CEE24FF248701AA24BB243A
:104BD000650140E050E060E070E0E0E0F0E0C1013D
:104BE00081709070892BE9F0E60CF71C081D191DE7
:104BF0009A01AB012A0D3B1D4C1D5D1D80E090E02C
:104C0000A0E0B0E0E614F7040805190520F481E0FF
:104C100090E0A0E0B0E0BA01A901480F591F6A1F57
:104C20007B1FAA0CBB1CCC1CDD1C97FE08C081E0BE
:104C300090E0A0E0B0E0A82AB92ACA2ADB2A31967F
:104C4000E032F10549F0660C771C881C991C5694DB
:104C5000479437942794C3CFFA85EA892B893C89F6
:104C60008B859C85280F391F2E5F3F4F17C0CA01C7
:104C700081709070892B61F016950795F794E794F1
:104C800080E090E0A0E0B0E8E82AF92A0A2B1B2B8C
:104C900076956795579547952F5F3F4F77FDE7CFFF
:104CA0000CC0440F551F661F771F17FD4160EE0CA7
:104CB000FF1C001F111F21503040403090E0590769
:104CC00090E0690790E4790760F32B8F3C8FDB015C
:104CD000CA018F779070A070B07080349105A105E3
:104CE000B10561F447FD0AC0E114F10401051105A5
:104CF00029F0405C5F4F6F4F7F4F40781A8EFE1750
:104D000011F081E08A8F4D8F5E8F6F8F78A383E0E3
:104D1000898FCE0149960E944729A096E2E10C9422
:104D20001D2BA8E1B0E0E7E9F6E20C94092B6983BA
:104D30007A838B839C832D833E834F835887B9E08E
:104D4000EB2EF12CEC0EFD1ECE010196B7010E9458
:104D50001C2A8E010F5E1F4FCE010596B8010E94DE
:104D60001C2A2985223008F47EC03989323010F49B
:104D7000B8017CC08A859A8989278A87243011F0F6
:104D8000223031F4231709F06EC06EEF72E06EC06E
:104D9000343039F41D861E861F86188A1C861B86B1
:104DA00004C0323021F484E08987B7015FC02B85CD
:104DB0003C858B899C89281B390B3C872B87ED848C
:104DC000FE840F851889AD88BE88CF88D88CEA14F8
:104DD000FB040C051D0540F4EE0CFF1C001F111F09
:104DE000215030403C872B8720E030E040E050E00D
:104DF00080E090E0A0E0B0E460E070E0EA14FB0442
:104E00000C051D0540F0282B392B4A2B5B2BEA188B
:104E1000FB080C091D09B695A79597958795EE0C8B
:104E2000FF1C001F111F6F5F7F4F6F31710531F73E
:104E3000DA01C9018F779070A070B070803491054D
:104E4000A105B10561F427FD0AC0E114F1040105D3
:104E5000110529F0205C3F4F4F4F5F4F20782D8781
:104E60003E874F87588BBE01675F7F4FCB010E9403
:104E700047296896EAE00C94252BA8E1B0E0E3E42A
:104E8000F7E20C940D2B69837A838B839C832D83AB
:104E90003E834F83588789E0E82EF12CEC0EFD1EEF
:104EA000CE010196B7010E941C2A8E010F5E1F4F92
:104EB000CE010596B8010E941C2A8985823040F0F7
:104EC0008989823028F0C701B8010E94942A01C064
:104ED0008FEF6896E6E00C94292BA8E1B0E0E3E7B9
:104EE000F7E20C940D2B69837A838B839C832D834B
:104EF0003E834F83588789E0E82EF12CEC0EFD1E8F
:104F0000CE010196B7010E941C2A8E010F5E1F4F31
:104F1000CE010596B8010E941C2A8985823040F096
:104F20008989823028F0C701B8010E94942A01C003
:104F30008FEF6896E6E00C94292BA8E1B0E0E3EA55
:104F4000F7E20C940D2B69837A838B839C832D83EA
:104F50003E834F83588789E0E82EF12CEC0EFD1E2E
:104F6000CE010196B7010E941C2A8E010F5E1F4FD1
:104F7000CE010596B8010E941C2A8985823040F036
:104F80008989823028F0C701B8010E94942A01C0A3
:104F900081E06896E6E00C94292BA8E0B0E0E3ED10
:104FA000F7E20C940A2B9B01AC0183E08983DA01C0
:104FB000C9018827B7FD83959927AA27BB27B82E53
:104FC000211531054105510519F482E089833AC064
:104FD0008823A9F0203080E0380780E0480780E887
:104FE000580729F460E070E080E09FEC30C0EE24C8
:104FF000FF248701E21AF30A040B150B02C07901A2
:105000008A018EE1C82ED12CDC82CB82ED82FE8219
:105010000F831887C801B7010E94F8280197181656
:10502000190684F4082E04C0EE0CFF1C001F111F8B
:105030000A94D2F7ED82FE820F831887C81AD90A24
:10504000DC82CB82BA82CE0101960E944729289643
:10505000E9E00C94262BACE0B0E0E1E3F8E20C943C
:10506000112B69837A838B839C83CE010196BE01C9
:105070006B5F7F4F0E941C2A8D81823061F18230EC
:1050800050F1843021F48E81882351F12EC02F817C
:10509000388537FD20C06E812F3131051CF0662325
:1050A000F9F023C08EE190E0821B930B29853A85AD
:1050B0004B855C8504C056954795379527958A950D
:1050C000D2F76623B1F050954095309521953F4F2A
:1050D0004F4F5F4F0EC020E030E040E050E009C08D
:1050E0002FEF3FEF4FEF5FE704C020E030E040E0FC
:1050F00050E8B901CA012C96E2E00C942D2BA8E0EF
:10510000B0E0E5E8F8E20C94092B7B018C01611515
:1051100071058105910519F482E0898360C083E0FF
:1051200089838EE1C82ED12CDC82CB82ED82FE8277
:105130000F831887C801B7010E94F828FC01319736
:10514000F7FF3BC0222733272E1B3F0B5701680177
:10515000022E04C0D694C794B794A7940A94D2F7A9
:1051600040E050E060E070E081E090E0A0E0B0E07E
:1051700004C0880F991FAA1FBB1F2A95D2F7019759
:10518000A109B1098E219F21A023B1230097A10578
:10519000B10521F041E050E060E070E04A295B2970
:1051A0006C297D294D835E836F8378878EE190E043
:1051B0008E1B9F0B9C838B8312C0309781F00E2E29
:1051C00004C0EE0CFF1C001F111F0A94D2F7ED82E1
:1051D000FE820F831887CE1ADF0ADC82CB821A8206
:1051E000CE0101960E9447292896EAE00C94252BCF
:1051F000EF92FF920F931F937B018C0180E0E816E2
:1052000080E0F80681E0080780E0180788F48FEF57
:10521000E816F1040105110531F028F088E090E06E
:10522000A0E0B0E017C080E090E0A0E0B0E012C0E5
:1052300080E0E81680E0F80680E0080781E01807C3
:1052400028F088E190E0A0E0B0E004C080E190E0C8
:10525000A0E0B0E020E230E040E050E0281B390B55
:105260004A0B5B0B04C016950795F794E7948A9553
:10527000D2F7F701EA5FFC4F8081281B3109410911
:105280005109C9011F910F91FF90EF900895DF928E
:10529000EF92FF920F931F93FC01E480F58006814B
:1052A0001781D1808081823048F480E090E0A0E1D5
:1052B000B0E0E82AF92A0A2B1B2BA5C0843009F498
:1052C0009FC0823021F4EE24FF24870105C0E11441
:1052D000F1040105110519F4E0E0F0E096C06281E7
:1052E00073819FEF623879070CF05BC022E83FEFD3
:1052F000261B370B2A3131052CF020E030E040E04E
:1053000050E02AC0B801A701022E04C07695679527
:10531000579547950A94D2F781E090E0A0E0B0E07D
:1053200004C0880F991FAA1FBB1F2A95D2F70197A7
:10533000A109B1098E219F21A023B1230097A105C6
:10534000B10521F081E090E0A0E0B0E09A01AB016E
:10535000282B392B4A2B5B2BDA01C9018F779070F0
:10536000A070B07080349105A105B10539F427FF14
:1053700009C0205C3F4F4F4F5F4F04C0215C3F4F3F
:105380004F4F5F4FE0E0F0E02030A0E03A07A0E0B0
:105390004A07A0E45A0710F0E1E0F0E079018A0141
:1053A00027C06038710564F5FB01E158FF4FD80153
:1053B000C7018F779070A070B07080349105A105FF
:1053C000B10539F4E7FE0DC080E490E0A0E0B0E064
:1053D00004C08FE390E0A0E0B0E0E80EF91E0A1FE1
:1053E0001B1F17FF05C016950795F794E794319694
:1053F00087E016950795F794E7948A95D1F705C04D
:10540000EE24FF248701EFEFF0E06E2F679566270B
:105410006795902F9F77D794DD24D7948E2F86950C
:10542000492F462B582F5D29B701CA011F910F91B3
:10543000FF90EF90DF900895FC01DB0140815181E6
:105440002281622F6F7770E0221F2227221F938113
:10545000892F880F822B282F30E0991F9927991FB9
:1054600011969C93119721153105A9F54115510508
:105470006105710511F482E037C082E89FEF139651
:105480009C938E9312979A01AB0167E0220F331F12
:10549000441F551F6A95D1F783E08C930DC0220FEE
:1054A000331F441F551F12968D919C91139701979E
:1054B00013969C938E931297203080E0380780E0FB
:1054C000480780E4580758F314962D933D934D9365
:1054D0005C93179708952F3F310579F441155105D5
:1054E0006105710519F484E08C93089564FF03C08D
:1054F00081E08C9312C01C9210C02F57304013963D
:105500003C932E93129783E08C9387E0440F551FB2
:10551000661F771F8A95D1F7706414964D935D933B
:105520006D937C93179708951F93DC01FB019C9169
:10553000923008F447C08081823008F443C0943030
:1055400051F411961C91843099F58181682F70E097
:10555000611B71093FC0843021F0923031F48230F8
:10556000B9F18181882389F12DC011961C91119781
:105570008230F1F081811817D9F412962D913C9167
:105580001397828193818217930794F02817390724
:10559000BCF014968D919D910D90BC91A02D24810D
:1055A000358146815781281739074A075B0718F468
:1055B000112341F00AC082179307A407B50740F4EE
:1055C000112319F061E070E005C06FEF7FEF02C0BA
:1055D00060E070E0CB011F910895AA1BBB1B51E155
:1055E00007C0AA1FBB1FA617B70710F0A61BB70B53
:1055F000881F991F5A95A9F780959095BC01CD01F8
:1056000008952F923F924F925F926F927F928F9266
:105610009F92AF92BF92CF92DF92EF92FF920F9341
:105620001F93CF93DF93CDB7DEB7CA1BDB0B0FB64B
:10563000F894DEBF0FBECDBF19942A8839884888F8
:105640005F846E847D848C849B84AA84B984C8849E
:10565000DF80EE80FD800C811B81AA81B981CE0F95
:10566000D11D0FB6F894DEBF0FBECDBFED0108957A
:10567000CF93DF93BC018230910510F462E070E0BB
:10568000A0919F04B091A004ED01E0E0F0E040E0C3
:1056900050E021C0888199818617970769F48A8133
:1056A0009B81309719F09383828304C09093A00468
:1056B00080939F04FE0134C06817790738F44115C0
:1056C000510519F08417950708F4AC01FE018A8191
:1056D0009B819C01E9012097E9F641155105A9F14B
:1056E000CA01861B970B049708F4BA01E0E0F0E0CA
:1056F0002AC08D919C91119784179507F9F464172E
:10570000750781F412968D919C911397309719F03B
:105710009383828304C09093A00480939F04FD012F
:1057200032964FC0CA01861B970BFD01E80FF91F87
:105730006193719302978D939C9343C0FD01828185
:1057400093819C01D9011097A1F680919D049091BD
:105750009E04892B41F48091080490910904909350
:105760009E0480939D0440910A0450910B044115BE
:10577000510541F44DB75EB780910604909107043E
:10578000481B590B20919D0430919E042417350726
:10579000B0F4CA01821B930B8617970780F0AB0108
:1057A0004E5F5F4F8417950750F0420F531F509381
:1057B0009E0440939D04F9016193719302C0E0E05F
:1057C000F0E0CF01DF91CF910895CF93DF93009761
:1057D00009F450C0EC0122971B821A82A0919F0409
:1057E000B091A004109709F140E050E0AC17BD075C
:1057F00008F1BB83AA83FE0121913191E20FF31FCF
:10580000AE17BF0779F48D919C911197280F391F1E
:105810002E5F3F4F3983288312968D919C91139769
:105820009B838A834115510571F4D093A004C093E2
:105830009F0420C012968D919C911397AD01009703
:1058400011F0DC01D3CFFA01D383C28321913191CE
:10585000E20FF31FCE17DF0769F488819981280FC3
:10586000391F2E5F3F4FFA01318320838A819B814C
:1058700093838283DF91CF910895FB019F01E89488
:105880004230C4F04532B4F44A3029F497FB1EF498
:10589000909581959F4F642F77270E94ED2A805D18
:1058A0008A330CF0895D8193CB010097A1F716F440
:1058B0005DE251931082C9010C945E2CDC01FC0165
:1058C000672F71917723E1F7329704C07C916D9334
:1058D00070836291AE17BF07C8F30895F894FFCFA5
:1058E00001000500FFFFFFFF4F7074696D616C20C0
:1058F000506174683A005363616E6E696E6700535D
:1059000063616E6E696E6720446F6E652E00636F13
:10591000756E743A200000466F6C6C6F77696E6725
:1059200020456467650044697374616E63653A205D
:1059300000466F6C6C6F7765642045646765004353
:105940006F756E743A200045786974696E67006EF1
:105950006577206368696C640062616320677265C3
:105960007400476F696E67206261636B2031006E5F
:105970006F646520676F6E65006E6578742063687C
:10598000696C642032006E65772063686964203337
:1059900000676F696E67206261636B2032006E651D
:1059A0007874206368696C64203300526F7461748A
:1059B000696E6720666F72206261636B207472612A
:1059C000636B0054746C20446973743A0020202087
:1059D0002020202020202020202020202000000027
:1059E000000000000000000102020303030304049E
:1059F000040404040404050505050505050505055D
:105A0000050505050505060606060606060606063C
:105A10000606060606060606060606060606060626
:105A2000060606060606070707070707070707070C
:105A300007070707070707070707070707070707F6
:105A400007070707070707070707070707070707E6
:105A500007070707070707070707070707070707D6
:105A600007070707070708080808080808080808BC
:105A700008080808080808080808080808080808A6
:105A80000808080808080808080808080808080896
:105A90000808080808080808080808080808080886
:105AA0000808080808080808080808080808080876
:105AB0000808080808080808080808080808080866
:105AC0000808080808080808080808080808080856
:105AD0000808080808080808080808080808080846
